{
  "contractName": "UploadEhr",
  "abi": [
    {
      "inputs": [
        {
          "internalType": "string",
          "name": "_timeStamp",
          "type": "string"
        },
        {
          "internalType": "string",
          "name": "_medicalRecordHash",
          "type": "string"
        }
      ],
      "name": "addRecord",
      "outputs": [],
      "stateMutability": "nonpayable",
      "type": "function"
    },
    {
      "inputs": [],
      "name": "getRecords",
      "outputs": [
        {
          "components": [
            {
              "internalType": "string",
              "name": "timeStamp",
              "type": "string"
            },
            {
              "internalType": "string",
              "name": "medicalRecordHash",
              "type": "string"
            }
          ],
          "internalType": "struct UploadEhr.PatientRecord[]",
          "name": "",
          "type": "tuple[]"
        }
      ],
      "stateMutability": "view",
      "type": "function",
      "constant": true
    }
  ],
  "bytecode": "0x608060405234801561001057600080fd5b5061097f806100206000396000f3fe608060405234801561001057600080fd5b50600436106100365760003560e01c80638eff3c291461003b578063c959624814610059575b600080fd5b610043610075565b604051610050919061047e565b60405180910390f35b610073600480360381019061006e91906105e9565b610234565b005b60606000803373ffffffffffffffffffffffffffffffffffffffff1673ffffffffffffffffffffffffffffffffffffffff168152602001908152602001600020805480602002602001604051908101604052809291908181526020016000905b8282101561022b578382906000526020600020906002020160405180604001604052908160008201805461010890610690565b80601f016020809104026020016040519081016040528092919081815260200182805461013490610690565b80156101815780601f1061015657610100808354040283529160200191610181565b820191906000526020600020905b81548152906001019060200180831161016457829003601f168201915b5050505050815260200160018201805461019a90610690565b80601f01602080910402602001604051908101604052809291908181526020018280546101c690610690565b80156102135780601f106101e857610100808354040283529160200191610213565b820191906000526020600020905b8154815290600101906020018083116101f657829003601f168201915b505050505081525050815260200190600101906100d5565b50505050905090565b600060405180604001604052808481526020018381525090506000803373ffffffffffffffffffffffffffffffffffffffff1673ffffffffffffffffffffffffffffffffffffffff16815260200190815260200160002081908060018154018082558091505060019003906000526020600020906002020160009091909190915060008201518160000190816102ca9190610877565b5060208201518160010190816102e09190610877565b505050505050565b600081519050919050565b600082825260208201905092915050565b6000819050602082019050919050565b600081519050919050565b600082825260208201905092915050565b60005b8381101561034e578082015181840152602081019050610333565b60008484015250505050565b6000601f19601f8301169050919050565b600061037682610314565b610380818561031f565b9350610390818560208601610330565b6103998161035a565b840191505092915050565b600060408301600083015184820360008601526103c1828261036b565b915050602083015184820360208601526103db828261036b565b9150508091505092915050565b60006103f483836103a4565b905092915050565b6000602082019050919050565b6000610414826102e8565b61041e81856102f3565b93508360208202850161043085610304565b8060005b8581101561046c578484038952815161044d85826103e8565b9450610458836103fc565b925060208a01995050600181019050610434565b50829750879550505050505092915050565b600060208201905081810360008301526104988184610409565b905092915050565b6000604051905090565b600080fd5b600080fd5b600080fd5b600080fd5b7f4e487b7100000000000000000000000000000000000000000000000000000000600052604160045260246000fd5b6104f68261035a565b810181811067ffffffffffffffff82111715610515576105146104be565b5b80604052505050565b60006105286104a0565b905061053482826104ed565b919050565b600067ffffffffffffffff821115610554576105536104be565b5b61055d8261035a565b9050602081019050919050565b82818337600083830152505050565b600061058c61058784610539565b61051e565b9050828152602081018484840111156105a8576105a76104b9565b5b6105b384828561056a565b509392505050565b600082601f8301126105d0576105cf6104b4565b5b81356105e0848260208601610579565b91505092915050565b60008060408385031215610600576105ff6104aa565b5b600083013567ffffffffffffffff81111561061e5761061d6104af565b5b61062a858286016105bb565b925050602083013567ffffffffffffffff81111561064b5761064a6104af565b5b610657858286016105bb565b9150509250929050565b7f4e487b7100000000000000000000000000000000000000000000000000000000600052602260045260246000fd5b600060028204905060018216806106a857607f821691505b6020821081036106bb576106ba610661565b5b50919050565b60008190508160005260206000209050919050565b60006020601f8301049050919050565b600082821b905092915050565b6000600883026107237fffffffffffffffffffffffffffffffffffffffffffffffffffffffffffffffff826106e6565b61072d86836106e6565b95508019841693508086168417925050509392505050565b6000819050919050565b6000819050919050565b600061077461076f61076a84610745565b61074f565b610745565b9050919050565b6000819050919050565b61078e83610759565b6107a261079a8261077b565b8484546106f3565b825550505050565b600090565b6107b76107aa565b6107c2818484610785565b505050565b5b818110156107e6576107db6000826107af565b6001810190506107c8565b5050565b601f82111561082b576107fc816106c1565b610805846106d6565b81016020851015610814578190505b610828610820856106d6565b8301826107c7565b50505b505050565b600082821c905092915050565b600061084e60001984600802610830565b1980831691505092915050565b6000610867838361083d565b9150826002028217905092915050565b61088082610314565b67ffffffffffffffff811115610899576108986104be565b5b6108a38254610690565b6108ae8282856107ea565b600060209050601f8311600181146108e157600084156108cf578287015190505b6108d9858261085b565b865550610941565b601f1984166108ef866106c1565b60005b82811015610917578489015182556001820191506020850194506020810190506108f2565b868310156109345784890151610930601f89168261083d565b8355505b6001600288020188555050505b50505050505056fea2646970667358221220b1791791638ee0eb2b23e43721b53e414f010ed834f1358447b72be40867ed2a64736f6c63430008130033",
  "immutableReferences": {},
  "source": "// SPDX-License-Identifier: MIT\r\npragma solidity ^0.8;\r\n\r\ncontract UploadEhr {\r\n    struct PatientRecord {\r\n        string timeStamp;\r\n        string medicalRecordHash;\r\n    }\r\n\r\n    mapping(address => PatientRecord[]) private records;\r\n\r\n    function addRecord(string memory _timeStamp, string memory _medicalRecordHash) public {\r\n        PatientRecord memory newRecord = PatientRecord(\r\n            _timeStamp,\r\n            _medicalRecordHash\r\n        );\r\n        records[msg.sender].push(newRecord);\r\n    }\r\n\r\n    function getRecords() public view returns (PatientRecord[] memory) {\r\n        return records[msg.sender];\r\n    }\r\n}",
  "sourcePath": "C:\\Users\\rjcvi\\OneDrive\\Desktop\\MediChaiN\\src\\contracts\\UploadEhr.sol",
  "compiler": {
    "name": "solc",
    "version": "0.8.19+commit.7dd6d404.Emscripten.clang"
  },
  "schemaVersion": "3.4.16",
  "updatedAt": "2024-09-20T16:11:15.957Z",
  "networkType": "ethereum",
  "devdoc": {
    "kind": "dev",
    "methods": {},
    "version": 1
  },
  "userdoc": {
    "kind": "user",
    "methods": {},
    "version": 1
  }
}